:020000040800F2
:10000000A81E00200D0200081502000817020008B3
:10001000190200081B0200081D0200080000000071
:100020000000000000000000000000001F020008A7
:100030002102000800000000230200082502000839
:1000400027020008270200082702000827020008EC
:1000500027020008270200082702000827020008DC
:1000600027020008270200082702000827020008CC
:1000700027020008270200082702000827020008BC
:1000800027020008270200082702000827020008AC
:100090002702000827020008270200083D16000872
:1000A000270200082702000827020008270200088C
:1000B000270200082702000827020008270200087C
:1000C000270200082702000827020008270200086C
:1000D000270200082702000827020008270200085C
:1000E000270200082702000827020008270200084C
:1000F000270200082702000827020008270200083C
:10010000270200082702000827020008270200082B
:10011000270200082702000827020008270200081B
:10012000270200082702000827020008270200080B
:1001300000F002F800F05AF80AA090E8000C82449F
:100140008344AAF10107DA4501D100F04FF8AFF27C
:10015000090EBAE80F0013F0010F18BFFB1A43F0A5
:100160000103184784500000A45000000A444FF0D7
:10017000000C10F8013B13F0070408BF10F8014B06
:100180001D1108BF10F8015B641E05D010F8016B4B
:10019000641E01F8016BF9D113F0080F1EBF10F8AF
:1001A000014BAD1C0C1B09D16D1E58BF01F801CBD2
:1001B000FAD505E014F8016B01F8016B6D1EF9D555
:1001C0009142D6D37047000000230024002500266A
:1001D000103A28BF78C1FBD8520728BF30C148BFAA
:1001E0000B6070471FB51FBD10B510BD00F044F87F
:1001F0001146FFF7F7FF02F057FE00F062F803B474
:10020000FFF7F2FF03BC00F065F8000009488047E3
:1002100009480047FEE7FEE7FEE7FEE7FEE7FEE7E8
:10022000FEE7FEE7FEE7FEE704480549054A064B00
:10023000704700001521000831010008A8180020AF
:10024000A81E0020A81A0020A81A00207047704796
:10025000704710B500F008F8006810BD10B50446EE
:1002600000F002F8046010BD0048704748180020F4
:1002700000487047481800207546FFF7F9FFAE4662
:1002800005006946534620F00700854618B020B5A2
:10029000FFF7CAFFBDE820404FF000064FF000070F
:1002A0004FF000084FF0000B21F00701AC46ACE81E
:1002B000C009ACE8C009ACE8C009ACE8C0098D468B
:1002C000704710B50446AFF300802046BDE81040EB
:1002D000FFF795BF01491820ABBEFEE726000200DC
:1002E000704700002448806940F40070224988610A
:1002F0002248006840F004002049086000BF1F4801
:10030000006800F004000028F9D01C48083000689C
:1003100040F0E0601949083108601848006840F46E
:10032000E0401649086008460068C91308431349AD
:100330000860081F006840F48060091F08600F48CB
:100340003030006840F480200C49303108600B48A0
:10035000006840F00100094908600846006840F460
:100360000010086000BF05480838006800F004006D
:100370000028F8D070470000001002400824014017
:1003800000B500F00DF80C21312000F0A7F80F2186
:100390002C2000F0A3F808212D2000F09FF800BDCC
:1003A0001F48806940F009001D4988611D480068A8
:1003B0001D4908401B490860084600681B4908435E
:1003C000184908600846006819490843154908603B
:1003D00014480C30006840F4805012490C31086019
:1003E0000F48C06940F480400D49C8611148008839
:1003F00040F2071108430F490880081D008840F0AB
:100400000400091D0880081F008840F04000091FF3
:100410000880094800E0401E0028FCDC704700000E
:1004200000100240040C0140FFFF3333000033335F
:100430000000808800380040400D03000146002085
:10044000244A126842F08052224B1A6000BF224AAE
:10045000128802F00202002AF9D041F0C0021E4BBD
:100460001B1D1A7000BF1C4A128802F00102002AEC
:10047000F9D0194A121D12880022174B1B1D1A7041
:1004800000BF154A128802F00102002AF9D0124A70
:10049000121D1288D0B200220F4B1B1D1A7000BF14
:1004A0000D4A128802F00102002AF9D00A4A121DF0
:1004B000128840EA022210B200BF074A128802F0F6
:1004C0008002002AF9D1034A126842F48052014B9B
:1004D0001A607047100C014008380040194A126831
:1004E00042F08052174B1A60174A107000BF164A2C
:1004F000121F128802F00102002AF8D0124A128854
:10050000114A117000BF104A121F128802F0010236
:10051000002AF8D00C4A128801E00B4A12880A4AD5
:10052000121F128802F08002002AF6D1054A1268D2
:1005300042F48052034B1A60002200E0521C322A1F
:10054000FCDB7047100C01400C380040F0B587B060
:100550002448006803F096FB04460D4622480068D4
:1005600003F090FB06460F462048C0681F494968C3
:100570001E4A92681D4B5B68CDE90332CDE9051038
:100580001A48006832463B461E21CDE900450290DC
:100590004B2000F0E3FE134801681348006800F0A8
:1005A000C5FC1248006800901048114A04214368B5
:1005B000084600F0C7FF0D48806800900B480D4AC0
:1005C00030210368382000F0BDFF084880680090A3
:1005D0000648084A59210368382000F0B3FF07B0E5
:1005E000F0BD0000140000201000002030000020AA
:1005F000F84400088C4700082DE9F04F8DB04FF407
:100600007A7001F017FAFE480168FE48006803F0AE
:1006100065FBFC490860FC480168FC48006803F081
:100620005DFBFA490860FA480168FA48006803F07F
:1006300055FBF849086008460168006803F0E6FCCD
:100640008246F2480168006803F0E0FC8346ED480A
:100650000168006803F0DAFC59460B9003F03EFB9A
:100660008146514603F03AFB044603F00BFB074674
:1006700002F0CCFC054602F021FDE7490860E348A2
:100680000168006803F0C2FC0446E24801680068A3
:1006900003F0BCFC0546214603F084FD01D201268F
:1006A00000E00026D7480168006803F0AFFC04466C
:1006B000D8480168006803F0A9FC0546214603F00C
:1006C00071FD01D2012000E000200640002E7DD007
:1006D000D2480068CA490860D0484068CA490860E2
:1006E000CE488068CA490860CD48006803F0CAFA5D
:1006F000CDE90801C7480168006803F087FC029053
:10070000C2480168006803F081FC0190029903F07F
:10071000E5FA039003F0B6FACDE9040102F076FCA5
:1007200082468B46B748006880F00040059003F091
:10073000A9FA52465B46CDE9060102F0A7FA064641
:100740000022B84B02F0C4FF8046B74AB74B02F014
:10075000A3FD0446DDE9082303F0AAF9CDE90A0167
:1007600002F0ACFCB2490860B248006803F08AFAB3
:1007700004460D46A3480168006803F047FC029058
:10078000A4480168006803F041FC0190029903F05D
:10079000A5FA039003F076FA804602F037FCCDE923
:1007A00004019A48006880F00048404603F06AFA65
:1007B0000646DDE9042302F069FA0022994BCDE9EF
:1007C000060102F085FF8246974A00E00FE0974B52
:1007D00002F062FD22462B46CDE9080103F068F9DC
:1007E000CDE90A0102F06AFC934908603DE100216D
:1007F0008648006803F0D6FC7DD88848C0688049E8
:1008000008608648006980490860844840698049DA
:1008100008608348006803F035FACDE90A017D4895
:100820000168006803F0F2FB0290784801680068F4
:1008300003F0ECFB0190029903F050FA039003F0EF
:1008400021FACDE9040102F0E1FB804689466D48BA
:10085000006880F00040059003F014FA42464B46D1
:10086000CDE9060102F012FA824600226D4B02F039
:100870002FFF6D4A6D4BCDE9080102F00DFD0646D4
:10088000DDE90A2303F014F9044602F017FC684975
:1008900008606848006803F0F5F9804689465948C1
:1008A0000168006803F0B2FB0290584801680068D4
:1008B00003F0ACFB0190029903F010FA039003F0EF
:1008C000E1F9064602F0A2FBCDE9060151480068B5
:1008D00003F0D8F9CDE90401DDE9062302F0D6F9E9
:1008E0000022504BCDE9080102F0F2FE4E4A4F4B78
:1008F000CDE90A0100E00CE002F0CEFC04464246DD
:100900004B4603F0D5F8824602F0D8FB4A4908600E
:10091000ABE04248C0683A490860404800693A493B
:1009200008603E4840693A4908603D48006803F065
:10093000A9F904460D4637480168006803F066FBD4
:10094000029032480168006803F060FB0190029950
:1009500003F0C4F9039003F095F9824602F056FBC8
:1009600081F00041CDE904012648006803F08AF9CE
:100970000646DDE9042302F089F900222F4BCDE978
:10098000060102F0A5FE284A284BCDE9080102F035
:1009900083FC22462B46CDE90A0103F089F8804604
:1009A00002F08CFB224908602248006803F06AF9D3
:1009B000CDE9080113480168006803F027FB0290A5
:1009C00012480168006803F021FB0190029903F0CE
:1009D00085F9039003F056F9824602F017FB0446AE
:1009E0000D460C48006880F0004A504603F04AF972
:1009F000064622462B4602F049F90022094B1FE029
:100A00002000002004000020240000200800002016
:100A1000280000200C0000200000002024180020E6
:100A20001800002000806640182D4454FB21094026
:100A3000100000201C00002014000020008066C070
:100A4000CDE9040102F044FE094A0A4BCDE9060152
:100A500002F022FC8046DDE9082303F029F8CDE905
:100A60000A0102F02BFB044908600DB0BDE8F08FCD
:100A7000182D4454FB2109401400002038B50C48BF
:100A8000006884B240F64E40844207DC09480068A2
:100A900000F4807050B900F077FF07E0064800943A
:100AA000036804214268802000F01CFB38BD000070
:100AB0003C240140080C014030000020F0B587B014
:100AC000F04F002500260020EF490860EF4908603C
:100AD0004FF08D40EE490860EE4800688023A02268
:100AE00000210090084600F07DFDEA484068009033
:100AF000E848E94A0A2103680F2000F023FD00BFFF
:100B0000E648006800F020000028F9D1384600F0DF
:100B100007FAE04840680090DE48E14A192103687E
:100B20000F2000F00FFDDB4840680090D948DD4AF7
:100B300019210368232000F005FDD6484068009085
:100B4000D448D94A0A210368882000F0FBFCD14828
:100B500040680090CF48D54A0B210368922000F0EE
:100B6000F1FCCC4840680090CA48D14A2321036870
:100B70000F2000F0E7FCC74840680090C548CD4A08
:100B800023210368442000F0DDFCC2484068009047
:100B9000C048C94A372103681E2000F0D3FCBD4875
:100BA00040680090BB48C34A6F210368862000F06C
:100BB000C9FCB84840680090B648BC4A7021036838
:100BC000922000F0BFFC0CE0B448006800F4807094
:100BD00008B101260125B148006800F0200000B1ED
:100BE0000125002DF0D0002E7ED10025A9480068F7
:100BF00007231A226F210090862000F0F3FCA548FD
:100C0000006807231A220A210090862000F0EAFCDF
:100C1000A048006814234622192100900F2000F0FC
:100C2000E1FC9C48406800909A48A44A1921036856
:100C30000F2000F087FCA24800F0FCFE92480068FC
:100C400080F0004001909148006880F000400290E0
:100C50008F4801684FF08D4003F0D6FA03900020D2
:100C6000894908604FF08D40884908600020884914
:100C70000860884800680A231E22192100900F206E
:100C800000F0B0FC83484068009082488D4A1921EA
:100C900003680F2000F056FC384600F041F97D480B
:100CA00000688023A02200210090084600F09AFCF2
:100CB0007848406800907748774A0A2103680F20F7
:100CC00000F040FC384600F02BF972484068009074
:100CD0007048734A192103680F2000F033FC6D48F7
:100CE000406800906B4800E0C1E0774A1921036832
:100CF000232000F027FC67484068009065486A4A56
:100D00000A210368882000F01DFC624840680090BA
:100D10006048664A0B210368922000F013FC5D488E
:100D2000406800905B48624A232103680F2000F06E
:100D300009FC58484068009056485E4A23210368E1
:100D4000442000F0FFFB53484068009051485F4A40
:100D50002E2103681E2000F0F5FB4E4840680090ED
:100D60004C48544A6F210368862000F0EBFB494849
:100D70004068009047484D4A70210368922000F077
:100D8000E1FB0CE04548006800F4807008B10126E2
:100D900001254248006800F0200000B10125002D27
:100DA000F0D0002E63D13B48006807231A226F2140
:100DB0000090862000F016FC3648006807231A22AF
:100DC0000A210090862000F00DFC324800681423B0
:100DD0005A22192100900F2000F004FC2D48406891
:100DE00000902C48354A192103680F2000F0AAFB17
:100DF000334800F01FFE2448006880F00040049053
:100E0000224801684FF08D4003F0FEF9059020481C
:100E1000006880F0004006901E4800680A231E22E9
:100E2000192100900F2000F0DDFB1A484068009067
:100E30001848244A192103680F2000F083FB384624
:100E400000F06EF800F0FEFC214800F0DBFC00240E
:100E500009E001AA52F824101D4A042303FB0420D0
:100E600000F01EFD641C062CF3DB00F0BDFC0948FD
:100E700000688023A02200210090084600F0B2FB09
:100E800007B0F0BD404B4C000400002008000020DB
:100E90000C00002030000020F0470008080C014042
:100EA000304800084848000828490008B0470008B2
:100EB000A0480008D448000838490008E84800085D
:100EC000400D03000C490008644800081C4C000851
:100ED000007C00081148406840F420100F49486029
:100EE0000846406820F4803048600846006840F0BA
:100EF0008070086000BF0948006800F0007000289A
:100F0000F9D10648406820F00300044948600846CB
:100F1000406840F002004860704700000010024046
:100F200000E0401E0028FCDC704700002DE9FC4179
:100F300005460C463949284603F068F8074602F092
:100F4000FDFF06B2364880683549096801233246FC
:100F5000CDE900103021082000F09EFD2F492046E9
:100F600003F054F8074602F0E9FF06B22C48806807
:100F70002B49096801233246CDE900105921082088
:100F800000F08AFD2648406800902548254A4821FF
:100F90000368082000F0D6FA2148406800902048F5
:100FA000214A1F210368082000F0CCFA00211F48C5
:100FB000006802F0F7FF0AD219484068009018480C
:100FC0001B4A20210368302000F0BCFA09E01448D5
:100FD000406800901248174A20210368302000F032
:100FE000B1FA00211448006802F0DCFF0AD20C4874
:100FF000406800900A48114A48210368302000F0F8
:10100000A1FA09E006484068009005480C4A4821CA
:101010000368302000F096FABDE8FC810000204112
:101020003000002004460008D045000810000020D1
:10103000B0470008C047000814000020E04700083F
:10104000D047000808B5094800688023A022002185
:101050000090084600F0C6FA044840680E23A0221B
:1010600000210090084600F0BDFA08BD30000020C5
:101070002DE9F04105460C461646581E2044C7B2DD
:10108000701E284400F0FF081548006840F48010E6
:10109000134908602A2000F045FF002000F060FF9F
:1010A000204600F05DFF002000F05AFF384600F0B7
:1010B00057FF2B2000F036FF002000F051FF28469C
:1010C00000F04EFF002000F04BFF404600F048FFCC
:1010D0000348006840F0100001490860BDE8F08155
:1010E000100801402DE9F04F85B004468A4693462A
:1010F0001D4640F64E40049004990E98884202D84E
:101100004FF0000916E0049A0E99881A02F090FA3E
:10111000074600227C4B02F0BFF800224FF08043CC
:10112000CDE9000102F0C4FCCDE9020102F03CFA75
:101130001FFA80F95B46754A51462046009500F03B
:1011400001FAB9F1500F0ADB0AF10202D1B204F13F
:101150000802D0B203230222009500F043FAB9F14D
:10116000320F09DB0AF10202D1B2621DD0B20323B1
:101170000222009500F036FAB9F1140F09DB0AF1EA
:101180000202D1B2A21CD0B203230222009500F0C9
:1011900029FA0026B9F1640F1BDB04F10F01C8B274
:1011A0005B465B4A5146009500F0CCF904F114010E
:1011B000C8B25B46574A5146009500F0C3F904F1A6
:1011C0001901C8B25B46534A5146009500F0BAF97E
:1011D00096E00A2791E099FBF7F00A2190FBF1F2E3
:1011E00001FB120000F0FF08B8F10A0F74D2DFE82B
:1011F00008F005101B26313C47525D6804F10F01D1
:101200003144C8B25B46434A5146009500F09AF912
:1012100062E004F10F013144C8B25B463C4A5146DA
:10122000009500F08FF957E004F10F013144C8B286
:101230005B46394A5146009500F084F94CE004F1D0
:101240000F013144C8B25B46344A5146009500F064
:1012500079F941E004F10F013144C8B25B46304AEC
:101260005146009500F06EF936E004F10F0131446B
:10127000C8B25B462B4A5146009500F063F92BE05B
:1012800004F10F013144C8B25B46274A514600952C
:1012900000F058F920E004F10F013144C8B25B4678
:1012A000224A5146009500F04DF915E004F10F0176
:1012B0003144C8B25B461E4A5146009500F042F9DF
:1012C0000AE004F10F013144C8B25B46194A5146A5
:1012D000009500F037F900BF00BF701DC6B204F1E1
:1012E00014013144C8B20A2307225146CDF800B098
:1012F00000F078F90A2097FBF0F7012FBFF66BAFEB
:1013000005B0BDE8F08F0000000012402044000846
:10131000444400083444000854440008644400086D
:10132000744400088444000894440008A44400085D
:10133000B4440008C444000810B503460024C3F3B5
:101340000744204600F00CFEC3F30724204600F0BB
:1013500007FEDCB2204600F003FE10BD2DE9FF5F62
:1013600088B000200790069000BF00BF4FF00D0A24
:1013700020244FF04D094B464A46DDE90801FFF7AE
:1013800077FEDDE90A23DDE9160101F07FFCCDE9F6
:101390000401DDE90A231046194602F099F90746CF
:1013A0008846DDE916231046194602F091F93A46BF
:1013B0004346CDE9000101F0B3FECDE9020101F0A1
:1013C00025FE05460E460AEBDA71A4EB6101481CC6
:1013D00002F017F907462A46334602F03DF909D2D2
:1013E00057460AEBD771A4EB6101481C02F009F9DA
:1013F00005460E46DDE9040101F008FD07462A46D0
:10140000334602F065F9CDE9020102F09DF840B2E1
:101410000790DDE9040101F0A9FD07462A4633469D
:1014200002F056F9CDE9020102F08EF840B20690C2
:101430004148006840F480103F4908602C2000F0CB
:1014400071FD00276CE04FF0000865E0069820442D
:10145000404501DC012000E0002006992144514470
:10146000414501DD012100E00021084007992144A8
:10147000B94201DC012100E0002108400799214424
:101480005144B94201DD012100E00021084088B14A
:1014900006982044A8EB000107982044381A0AFB5C
:1014A0000010264911F800B009FB08702449085CB7
:1014B000039006E009FB08712148405C03904FF05F
:1014C000000B0398834502DA0398029001E0CDF8FF
:1014D00008B00298052818D2DFE800F003070B0FC8
:1014E00013001898FFF728FF13E01998FFF724FF5F
:1014F0000FE01A98FFF720FF0BE01B98FFF71CFF87
:1015000007E01C98FFF718FF03E01898FFF714FF97
:1015100000BF00BF08F10108C84597DB781C87B2FF
:101520004F4590DB0448006840F010000249086015
:101530000CB0BDE8F09F00001008014045000020FD
:10154000EE0000202DE9F04F81468A4614461F46E2
:101550002379227851464846FFF78AFD20480068E3
:1015600040F480101E4908602C2000F0DBFC0025B0
:101570002AE0002623E0206800FB0658022000EB4A
:10158000581054F8200008F01F01C1F11F01C84095
:1015900000F0010BBBF1000F03D0BBF1010F08D12C
:1015A00003E03846FFF7C8FE07E00998FFF7C4FEDE
:1015B00003E03846FFF7C0FE00BF00BF761C60683E
:1015C000B042D8D8681C85B22068A842D1D8044857
:1015D000006840F0100002490860BDE8F08F00008C
:1015E000100801402DE9F0430746884614461D4681
:1015F000DDF81C902B46224641463846FFF738FD61
:101600000D48006840F480100B4908602C2000F061
:1016100089FC04FB05F604E04846FFF78DFE701ECA
:1016200086B2002EF8DC0448006840F01000024941
:101630000860BDE8F08300001008014038B5494C4F
:101640004948006800F4807010B100F0CDF980E0E6
:101650004548006800F0200058B144480078401C1C
:101660004249087008460078012872DD00200870A1
:101670006FE03D48006800F0800098B33B48007878
:10168000022815D13A484068072319220421009006
:101690003220FFF7A7FF37480078344908703248F6
:1016A0001438006840F060002F491439086050E099
:1016B0002F48006800902E482F4A042143683220AA
:1016C000FFF740FF294800782A490870022027497F
:1016D000087025481438006820F060002249143949
:1016E000086036E0FFE72048006800F0400080B363
:1016F0002248007880B10020204908702049086005
:10170000204908601A4840680723192204210090E4
:101710005A20FFF767FF1CE0194801681A48006863
:1017200002F0DCFA1649086016480168174800689C
:1017300002F0D4FA134908600D48006800900C4884
:10174000134A042143685A20FFF7FCFE01200B498D
:1017500008702046FFF7E4FB034800680249086070
:1017600038BD000000093D00140401404300002082
:1017700030000020400000201C45000842000020EE
:101780001C00002018000020140000201000002081
:101790003C4500081248C06841F210110843104946
:1017A000C8600846006940F001010D4801610D481C
:1017B000006840F4F0700B4908600A480838006877
:1017C00040F4F07007490839086017200121814072
:1017D0004209920002F1E022C2F8001100BF7047F6
:1017E00000000140080401400548006940F0800005
:1017F000034908610846006820F01200086070473D
:10180000002002400C49096941F002010A4A1161B5
:1018100011464861096941F04001116100BF064964
:10182000C96801F020010029F9D00349096921F0B4
:101830000201014A11617047002002400146086818
:10184000704700000748084948600848486012206F
:10185000086000BF0448006900F080000028F9D14A
:10186000704700002301674500200240AB89EFCD9F
:101870000A4A126942F00102084B1A61018000BF56
:10188000064AD26802F02002002AF9D0034A1269FF
:1018900022F00102014B1A61704700000020024053
:1018A00013B50446BDF804102046FFF7E1FFBDF86C
:1018B0000610A01CFFF7DCFF1CBD00002348806958
:1018C00040F00900214988610846806940F008001D
:1018D00088611F48006820F0C0001D490860084664
:1018E000006840F03000086019480C30006840F48F
:1018F000007017490C3108601548001F0068154931
:1019000008401349091F0860081D006820F0030003
:10191000091D0860081F00680F4908400C49091F8D
:101920000860081D006820F00C00091D0860081FF1
:1019300000680A4908430649091F0860081D006835
:1019400040F00800091D08607047000000100240C8
:10195000040C0140FFFFCFCCFFFF3F330000808825
:1019600000B5002209E0064901EB8200FFF766FF9F
:101970000346044840F82230521C062AF3DB00BD1F
:10198000007C00082418002008B5FFF75BFB104816
:10199000406800900E480F4A3C2103682620FFF75C
:1019A000D1FD0D4800E0401E0028FCDC0B4800681B
:1019B00040F4802009490860094800E0401E0028E2
:1019C000FCDC0848006840F000700649086008BD6B
:1019D000300000205C450008405489001008014098
:1019E00060AE0A00100C01400E4800E0401E0028C6
:1019F000FCDC0D48006800F4807090B10B48006872
:101A000040F4802009490860094800E0401E002891
:101A1000FCDC05480830006840F0007002490831DD
:101A20000860704770110100080C01401008014067
:101A3000C0CF6A0070B5044624E03420FEF7FEFCF7
:101A4000064602F097FA0546002100F0D9F80F4942
:101A500008603220FEF7F2FC064602F08BFA0546DB
:101A6000012100F0CDF80A4908603620FEF7E6FCB7
:101A7000064602F07FFA0546022100F0C1F805494A
:101A80000860641E002CD8D170BD00000400002046
:101A9000080000200C0000202DE9F84F064688467B
:101AA00017469946DDE90AB4002F01DA784207B2F9
:101AB0004FF47A7589E0B9F1000F0CD1012D0AD1EC
:101AC00008F10C00C1B25B46424A30460094FFF771
:101AD00039FD701DC6B2B9F1010F0CD1012D0AD12B
:101AE00008F10C00C1B25B463A4A30460094FFF759
:101AF00029FD701DC6B297FBF5F00A2190FBF1F2AB
:101B000001FB120000F0FF0ABAF10A0F56D2DFE81B
:101B10000AF0050D151D252D353D454D5B462E4A18
:101B2000414630460094FFF70DFD47E05B462B4AE7
:101B3000414630460094FFF705FD3FE05B46284AEA
:101B4000414630460094FFF7FDFC37E05B46254AEE
:101B5000414630460094FFF7F5FC2FE05B46224AF1
:101B6000414630460094FFF7EDFC27E05B461F4AF4
:101B7000414630460094FFF7E5FC1FE05B461C4AF7
:101B8000414630460094FFF7DDFC17E05B46194AFA
:101B9000414630460094FFF7D5FC0FE05B46164AFD
:101BA000414630460094FFF7CDFC07E05B46134A00
:101BB000414630460094FFF7C5FC00BF00BF06F168
:101BC0000A00C6B20A2095FBF0F5012DBFF673AFEF
:101BD000BDE8F88F50470008384600085446000812
:101BE000704600088C460008A8460008C446000855
:101BF000E0460008FC460008184700083447000883
:101C00002DE9F04F89B083460C46304951F8240045
:101C10002F4902F063F805462C4951F82400294663
:101C200002F0CAF882462B4850F82410584602F0B9
:101C3000EBFA0646514602F0E9F90546254850F808
:101C40002410284602F04AF881462348006802F032
:101C500019F805460E461F4951F82400494602F07E
:101C6000D3FA019002F00EF821F0004107462A460F
:101C7000334601F02DFDCDE90401144951F824004B
:101C800002F000F807468846504601F0FBFF054683
:101C90000022124B01F01AFE3A464346CDE90001FC
:101CA00001F016FDCDE90201DDE9042301F038FA67
:101CB000CDE9060101F002FA044941F82400054883
:101CC00040F82490484609B0BDE8F08F181800206D
:101CD00000D084463C1800202C0000200000F03F7B
:101CE0002DE9F04F89B03F48006801F0CBFF8246F4
:101CF0003D4A3E4B01F0ECFC00223D4BCDE9040196
:101D000001F0CAFA804601F0A7F906460022394BD5
:101D100001F0DEFC044601F0D1F908903648006875
:101D200001F0B0FF0646304A304B01F0D1FC80464E
:101D300000222F4B01F0B0FACDE9040101F08CF93B
:101D4000044600222B4B01F0C3FC824601F0B6F999
:101D500007902948006801F095FF04460D46214888
:101D6000006801F08FFF06460F462448C0682349EB
:101D70004968224A9268214B5B68CDE90332CDE97C
:101D800005101E48006832463B461E21CDE900453D
:101D900002904B20FFF7E2FADDE90710FFF7C6F8E3
:101DA0001648006800901548154A04214368084603
:101DB000FFF7C8FB1148806800901048114A302195
:101DC00003683820FFF7BEFB0C48806800900B4882
:101DD0000C4A592103683820FFF7B4FB09B0BDE86D
:101DE000F08F000010000020182D4454FB21094002
:101DF00000806640000059401400002030000020A0
:101E0000D44400086847000800B500F0C7F843480C
:101E1000806940F00400414988614148006820F42D
:101E200040603F4908600846006840F480700860E0
:101E30003B481030006840F0040039491031086018
:101E4000374800684CF2C0018843354908600846AD
:101E5000006841F2100108433149086030481030F1
:101E6000006840F008002E491031086048F6A04094
:101E700000E0401E0028FCDC29481030006840F4D7
:101E8000002027491031086048F6A04000E0401EBD
:101E90000028FCDC22481030006840F0080020498F
:101EA000103108600846006840F480100860012086
:101EB00000F038F848F6A04000E0401E0028FCDCA6
:101EC000112000F02FF848F6A04000E0401E002846
:101ED000FCDC3A2000F026F8062000F041F836201D
:101EE00000F020F8402000F03BF8B12000F01AF894
:101EF000002000F035F8012000F032F8012000F059
:101F00002FF8292000F00EF805481030006840F046
:101F1000100003491031086000BD000000100240AD
:101F2000000801400C49096841F400310A4A116077
:101F300000BF0A49098901F002010029F9D00749C7
:101F4000087301E0054989890449098901F0800184
:101F50000029F7D17047000010080140003001400F
:101F60000C49096841F002010A4A116000BF0A49A0
:101F7000098901F002010029F9D00749087301E03D
:101F8000054989890449098901F080010029F7D1AF
:101F90007047000010080140003001401D48806972
:101FA00040F005001B4988611B4800681B49084038
:101FB000194908600846006819490843164908602D
:101FC0000846006817490843134908601248103052
:101FD000006840F010001049103108600D48806919
:101FE00040F480500B4988610F48008840F48270AB
:101FF0000D4908800846008820F03B00088008460C
:10200000808840F0040088800846008840F0400046
:10201000088070470010024000080140FFFF333F76
:1020200000003330000080800030014010B500F027
:1020300001F810BD0CB500200190009033480068F5
:1020400040F480303149086000BF3048006800F437
:10205000003000900198401C0190009818B9019838
:10206000B0F5A06FF1D12948006800F4003010B13C
:102070000120009001E0002000900098012843D149
:102080002348006840F010002149086008460068B5
:1020900020F0030008600846006840F00200086075
:1020A0001A48406819494860084640684860084630
:1020B000406840F4806048600846406820F47C1026
:1020C00048600846406840F4E810486008460068E8
:1020D00040F08070086000BF0C48006800F000709D
:1020E0000028F9D00948406820F0030007494860FB
:1020F0000846406840F00200486000BF034840685E
:1021000000F00C000828F9D10CBD000000100240BE
:102110000020024010B51348006840F0010011494A
:10212000086008464068104908400E494860084663
:1021300000680E4908400B4908600846006820F412
:10214000802008600846406820F4FE0048604FF494
:102150001F008860FFF76AFF4FF0006004490860C5
:1021600010BD0000001002400000FFF8FFFFF6FE67
:1021700008ED00E000BF024800780228FBD070475D
:1021800043000020490050EAC12018BF04204A0D36
:1021900018BF40F0010040F2FF72B2EB515F08BF80
:1021A00040F00200012808BF052070472DE9F74FD5
:1021B000144694B00021C4E902111599079121F049
:1021C0000045C9498D4206DC1599C4E9000117B0E4
:1021D0000020BDE8F08FC549DFF814A3A9423CDD1B
:1021E0000799C44E0029C44FC44A1599534619DDB6
:1021F00001F05EFC554506D0C14AC24B01F058FCC7
:10220000C4E900010AE04FF0D352BE4B01F050FC8C
:1022100032463B4601F04CFCC4E9000117B00120F6
:10222000BDE8F08F00F07CFF554506D0B44AB54BB1
:1022300000F076FFC4E900010AE04FF0D352B14B41
:1022400000F06EFF32463B4600F06AFFC4E9000131
:1022500017B04FF0FF30BDE8F08FAB49A942159998
:1022600078DB21F0004183468846A84AA84B01F05C
:102270002FFA0022A74B00F053FF01F065F90990F7
:1022800001F0BFF906460F469C4A534601F020FA7A
:1022900043465A4601F01AFB80468A46984A994BB3
:1022A0003046394601F014FA2A0D01250B924246B8
:1022B000534601F00BFB032DC4E9000139D00B9804
:1022C000C1F30A51401A05EB45111139814230DA48
:1022D0009148C346784400EB0510CDF80CA00C9053
:1022E000D0E900233046394601F0F2F902460B46A8
:1022F000049106905846039901F0DAFB80468A461D
:1023000002460B465846039901F0D2FB049B069AFD
:1023100001F0CEFB83460C9803913946D0E90223A5
:10232000304601F0D5F95A46039B01F0C1FB6D1C04
:10233000BDE707980028A2BF099817B0BDE8F08F45
:10234000616881F000416160099817B04042BDE8C2
:10235000F08FFFE784461598C1F31301C0F30A50CC
:10236000A0F2F5304FEA601800F01F06C6F1200019
:10237000139000200690079041F4801E05206D46C2
:1023800076B1664A08EB00017A4452F8213002EB3C
:102390008101B3404A68139922FA01F1194305E01B
:1023A0005F4908EB0002794451F82210A1FB0E2787
:1023B000A1FB0C131A449A4234BF0123002303EB00
:1023C000070A05EB8003D3E901B70F448F4234BFFE
:1023D0000121002193448B4411B1934502D903E0BC
:1023E000934501D2012100E00021C3E901B7514426
:1023F00045F82010011EA0F10100C1DC0298059FE4
:1024000000F10050800F12900298DDE90356800021
:1024100001F0F7F8834628460D9101F009F96FF0B5
:102420001D0201F098FFCDE90E01304601F000F9E0
:102430006FF03D0201F08FFF80468A46384601F07A
:10244000F7F86FF05D0201F086FF074642465346FB
:10245000119100F065FEDDE90E2300F061FE5A46A1
:102460000D9B00F05DFE00250E465A4628460D9B4A
:1024700001F01EFBDDE90E2301F01AFB4246534634
:1024800001F016FB3A46119B01F020FADFF898A004
:10249000244A534601F01CF907468846234A244B38
:1024A0003146284601F014F93A46434600F038FE1A
:1024B000074688464FF0A84253463146284601F069
:1024C00007F93A46434600F02BFE159A12F0004FEA
:1024D00004D0129A81F0004152421292C4E90001E4
:1024E000129817B0BDE8F08FFB21E93F7CD902407C
:1024F000FB21F93F7370032E8A19A33B000040545F
:102500003163621A61B4D03DFB21394183C8C96D82
:10251000305FE43F0000E03FC02D00003C2D000094
:102520001E2D0000182D4454FB21F93D3326A61121
:10253000460B113C2DE9FF4D21F0004807460C46A3
:10254000B8F1795F08DA00F0FFFF002801BF002032
:10255000324904B0BDE8F08D3A462346104619468C
:1025600001F0B6F8054602462D480E460B460621F8
:10257000784400F05DF82A46334601F0A9F8DDE919
:10258000022382468B463846214601F0A1F80446D4
:102590000F4652465B462846314601F099F82246DE
:1025A0003B4601F085FA07468A464FF0FF3228463F
:1025B000314601F0D0FE1B4A90450ADA3A465346AE
:1025C00001F076FA04B00022BDE8F04D134B01F0A3
:1025D0007DB9154A4245A8BFA8F500154FF0000483
:1025E000B8BF124D22462B4601F062FA06468846D5
:1025F00022462B460020094901F05AFA04460D46AE
:102600003A4653463046414601F052FA04B022465B
:102610002B46BDE8F04D01F059B900000000F03F35
:10262000EC2A00003333D33F0000E93F0000D23FE3
:102630002DE9F0414F1E00EBC7010446D1E900012E
:1026400015461E4637F006020DD02A46334601F0E5
:102650003FF87F1E04EBC703D3E9002300F060FDC1
:1026600037F00602F1D1022F25D0042F13D0062F08
:1026700018BFBDE8F0812A46334601F029F8D4E9B5
:102680000A2300F04DFD2A46334601F021F8D4E933
:10269000082300F045FD2A46334601F019F8D4E935
:1026A000062300F03DFD2A46334601F011F8D4E937
:1026B000042300F035FD2A46334601F009F8D4E939
:1026C000022300F02DFD2A46334601F001F8D4E93B
:1026D0000023BDE8F04100F023BD00002DE9FF4DCF
:1026E000054621F0004084B00C46B0F1795F0BDA6A
:1026F0002846FFF747FD042808BF00F0AFF9284639
:1027000008B02146BDE8F08D2A460B46104600F081
:10271000DFFF06460F462A46234600F0D9FF8046D3
:1027200026488A4632463B4605217844FFF780FF1B
:1027300083461098029160B3214A224B404651468D
:1027400000F0C6FFCDE900015A4640465146029BC3
:1027500000F0BEFF82468846DDE906014FF0FF32F9
:1027600001F0F9FD5246434601F0A2F932463B46DC
:1027700000F0AEFFDDE9062301F09AF9DDE9002360
:1027800001F096F908B02A462346BDE8F04D01F065
:102790009DB80B465A463046394600F099FF084A24
:1027A000084B00F0BDFC4246534600F091FF08B0D4
:1027B0002A462346BDE8F04D00F0B2BC322A0000A4
:1027C000495555555555C5BF2DE9F04D04468CB0BA
:1027D000904821F00047164698460D4609918742D9
:1027E00006DA2046294600F0AFFE002800F0AE8051
:1027F0008948B8421CDC09980028BCBF85F0004518
:1028000088F00048854A864B2046294601F05EF84C
:1028100004460D46324643468248834901F048F952
:1028200022462B4600F07CFC002604460D46B046AE
:1028300022462B461046194600F04AFF8B46824638
:1028400002460B4600F044FF0246089077480B46CC
:10285000009106217844FFF7EBFECDE903107448A0
:1028600006217844009B089AFFF7E2FE52465B4639
:1028700000F02EFFCDE9051052465B462046294662
:1028800000F026FF07910090DDE90310DDE9053235
:1028900000F046FC079B009A00F01AFF32464346C0
:1028A00000F03EFC52465B4600F012FF32464346C3
:1028B00000F036FC80460E465E4A5F4B0799009852
:1028C00000F006FF4246334600F02AFC82468B4663
:1028D00022462B4600F024FC80464F480E46B84264
:1028E00014985BDC00F08DFE0746424633460591A6
:1028F00000F016FCCDE90110424633461046194659
:1029000000F0E6FEDDE9013200F0C6FC52465B460F
:1029100001F0CEF822462B4600F0D8FF012201F04C
:102920001AFD3A46059B00F0D1FF04460D46099872
:10293000022101EAA070C0F1010000F062FE0CB0BB
:1029400022462B46BDE8F04D00F0C2BE1498401C54
:10295000384320430BD01498012812D00CB02246E3
:102960002B46BDE8F04D0020344900F095BC0CB07A
:1029700025F000432246BDE8F04D0020304900F02C
:102980008BBC20462946FFF7FDFB042808BF00F05A
:1029900065F820460CB02946BDE8F08D012802BF3D
:1029A00040460CB0BDE8F08D00270B463A46204665
:1029B000294600F08BFF52465B4600F087FF044635
:1029C0000D464246334600201C4900F065FC834614
:1029D0003A4688463346104600F07AFE0022184BED
:1029E00000F09EFB06468A4622462B463846414664
:1029F00000F06EFE3246534600F092FB5A464346C4
:102A000000F066FE0CB03A464346BDE8F04D00F0DB
:102A100087BB00000000303E2894E53F182D445449
:102A2000FB21E93F075C143326A6813C30290000D6
:102A300052290000635555555555D53F0000F0BF4C
:102A40000000F03F012201F086BC00F069BB0022CB
:102A500013461046114600F01FBC0000024A002039
:102A6000110701F078BC000001FDFFFF2DE9F84FD0
:102A700004460D4621F0004000917349814211DC6B
:102A80007249884201DC06D12CB120462946BDE8B6
:102A9000F84FFFF7D7BF6E48002DCCBF6D496E4988
:102AA000BDE8F88F6D49814211DD6D498142D8BF83
:102AB0004FF0FF366DDD20462946FFF763FB042803
:102AC00008BFFFF7CBFF20462946BDE8F88F6549D0
:102AD000654F25F00045814233DD6449814219DDAF
:102AE000002632464FF080432046294600F018FB6E
:102AF00080468A4601222046294601F02CFC00220D
:102B00003B4600F0D5FF4246534600F0C5FB044665
:102B10000D463EE001260022BA463B4620462946A5
:102B200000F0FEFA80460F46002253462046294612
:102B300000F0BEFF42463B4600F0AEFB04460D46A9
:102B400027E04B4981421BDDDFF828A10226002245
:102B500053462046294600F0BBFD00223B4600F0CC
:102B6000DFFA80460F46002253462046294600F0F1
:102B70009FFF42463B4600F08FFB04460D4608E0AF
:102B8000032622462B4600203B4900F085FB0446E5
:102B90000D4622462B461046194600F099FD8B46FD
:102BA000824602460B4600F093FD07460246334834
:102BB00088460B4606217844FFF73AFD52465B46AD
:102BC00000F086FD82462E488B463A464346052154
:102BD0007844FFF72DFD3A46434600F079FD024662
:102BE0000B46002E504659460CDA00F099FA224660
:102BF0002B4600F06DFD01B022462B46BDE8F04F9C
:102C000000F064BE00F08CFA22462B4600F060FD16
:102C10001C4A7A4402EBC603D3E9002300F048FFC4
:102C200022462B4600F044FF174A7A4402EBC603C3
:102C3000D3E9002300F04AFE009A002AB8BF81F0D1
:102C40000041BDE8F88F0000000010440000F07F54
:102C5000182D4454FB21F93FFB21F9BF0000DC3F54
:102C60000000203E0000F33F0000F03F0000E63F80
:102C7000008003400000F83F0000F0BF7624000011
:102C800034240000D22300009A2300002DE9F04DE7
:102C90009446CCF1000423F000464CEA0404524F61
:102CA00046EAD4749A46884621F00042BC4206D8CF
:102CB000454240EA050442EAD474BC4204D9BDE866
:102CC000F04D6246FFF7C1BEAAF14055A5F17F6500
:102CD00055EA0C040BD0022404EAAA74434DDFF831
:102CE00010E144EAD87452EA000B04D00CE0BDE8CD
:102CF000F04DFFF7BBBE002C14BF012CBDE8F08DDA
:102D0000022C30D0032C32D056EA0C0B0AD0BE4233
:102D100020D1BA4209D126F0804622F080423346C3
:102D2000114617E000291ADB25E0DFF8C8B0FB44A4
:102D3000002C04BFDBE90001BDE8F08D012C02BFCF
:102D4000DBE9000181F00041BDE8F08D022C0AD0E2
:102D5000032C0CD0BA4212D1B8F1000F0BDA234881
:102D60002549BDE8F08D28462449BDE8F08D284668
:102D70007146BDE8F08D1D482149BDE8F08D921BDC
:102D800012153C2AC4BF19481D490EDCBAF1000FC8
:102D9000BEBF12F13C0F0020014606DB624600F088
:102DA0007BFA21F00041FFF761FE002C08BFBDE86F
:102DB000F08D012C04BF81F00041BDE8F08D114A77
:102DC000114B022C07D000F073FE2A46BDE8F04DEF
:102DD0000A4B00F06DBE00F06BFE2A46BDE8F04DD8
:102DE000064B00F073BD00000000F07F182D445426
:102DF000FB2109C05E230000FB21F9BFFB21094034
:102E0000FB21F93F075C143326A6A13C00B5244BF7
:102E100021F0004287B09A42DCBF0022134629DD30
:102E2000204B9A4208D140B94FF00100FDF716FA45
:102E3000FFF70DFE07B000BD03DBFFF703FE07B091
:102E400000BD02AAFFF7B2F910F0030104BF0DF1B3
:102E5000080C9CE80F000DD0012001290ED002299A
:102E600014D00DF1080C00909CE80F00FFF736FC21
:102E700007B000BDFFF75EFB07B000BD0DF1080C09
:102E800000909CE80F00FFF729FC05E00DF1080C0D
:102E90009CE80F00FFF74EFB07B081F0004100BD3A
:102EA000FB21E93F0000F07F08B5FEF713F8FDF7BE
:102EB00019FAFEF703FDFDF763FAFEF7A5FFFEF72B
:102EC000C1F82448006800F02000202801D1FDF757
:102ED000F5FDFEF745FDFEF75DFC1F4840680090DC
:102EE0001D481E4A3C2103680846FEF72BFB00BF25
:102EF0001848006800F480700028F9D11848FEF7DF
:102F00000FF8FEF79FF824E016480078C82804D18F
:102F1000FDF7B4FD00201349087012480078401CEA
:102F200010490870FDF768FB0F48007820B10128B0
:102F300005D0022809D105E0FDF708FB08E0FEF7FF
:102F4000CFFE05E0FFF716F902E0FDF7FFFA00BF3C
:102F500000BFD9E7080C014030000020E84300081A
:102F6000C0CF6A00440000204300002000B5254B7C
:102F700021F0004287B09A4203DC002213460092FF
:102F80002BE0214B9A4208D140B94FF00100FDF7E8
:102F900065F9FFF75CFD07B000BD03DBFFF752FDED
:102FA00007B000BD02AAFFF701F910F003014FF0CE
:102FB00001000DD0012914D002291AD00DF1080CFE
:102FC0009CE80F00FFF7B6FA07B081F0004100BDA2
:102FD0000DF1080C00909CE80F00FFF77FFB07B095
:102FE00000BD0DF1080C9CE80F00FFF7A3FA07B035
:102FF00000BD0DF1080C00909CE80F00FFF76EFB80
:10300000E2E70000FB21E93F0000F07F2DE9F041FD
:1030100006460F4600F066FC041E0D4618BF012050
:10302000284320F00040C0F17F6000F1E040C00F75
:103030000ED0301C18BF0120384320F00040C0F1F2
:103040007F6000F1E040C00F04BF0120FDF706F9EA
:1030500020462946BDE8F08110B5164B21F000420C
:10306000012486B09A4203DC0022134600941CE03F
:10307000114B9A4208D140B94FF00100FDF7EEF82C
:10308000FFF7E5FC06B010BD03DBFFF7DBFC06B085
:1030900010BD02AAFFF78AF800F00100A4EB40007F
:1030A0000DF1080C00909CE80F00FFF78DFB06B0B7
:1030B00010BD0000FB21E93F0000F07F21F000423D
:1030C000A2F16052B2F5801F01F0004328BFD2F197
:1030D0007F6C0BD95FEA001C43EAC20242EB5070DE
:1030E00018BF704728BF20F001007047B2F5801F5D
:1030F000BCBF184670474FEA410C1CF5001F02D2B6
:10310000084601F04AB870B500F08CFB0000008959
:10311000FFF7F6BF4FF00040A0F5800070470000B9
:1031200010B591EA030F48BF83F0004300F1C88453
:10313000841A71EB030C05D2121943EB0C03001B2C
:1031400061EB0C01DFF824E14FEA1154A4EB135CAE
:103150001EEA430F18BF9EEA445F73D023EA0E03B2
:10316000DCF1200E21EA045143F4801332D322FA19
:103170000CFE10EB0E0023FA0CFE41EB0E01CCF11D
:10318000200E03FA0EFE10EB0E0051F10001B1F516
:10319000801FCCF1200E32D201EB045112FA0EF254
:1031A000BDE8104058BF7047401C38BF5FEA42027C
:1031B00018BF7047002814BF20F0010041F1000142
:1031C0004FEA410313F5001F38BF7047A1F1C0411A
:1031D00000F076BB012A43EB0302ACF1200CDCF1DA
:1031E0001F0E32BF4FF0000E23FA0CF310EB03005A
:1031F00041EB0451B4EB115FD0D0A1EB045101F5C8
:10320000801149085FEA300001EB04510ED350F100
:10321000000038BF12FA0EFE08D1BDE81040C9E721
:10322000401C38BF5FEA4202CAD1C3E7BDE8104084
:103230004FEA410313F5001F38BF7047A1F1C041A9
:1032400000F03EBB9EEA445F08D011EA5E0FBDE885
:10325000104004BF01F0004100207047BDE810405D
:1032600070B500F0DFFA00BF64FBBE3E0000E0FF77
:1032700002494FF0000001F03CB800BF0000F87FA9
:10328000491058BFC1F140415B1058BFC3F14043E2
:103290008B42EFF3008070472DE9C04130B4DFF876
:1032A000A0C23CEA111418BF3CEA131400F0EC80F1
:1032B00081EA03051CEA111444EAD57418BF1CEA1C
:1032C000131500F0C780A4EB05044FF0004545EA54
:1032D000C12145EAC32341EA505143EA525304F164
:1032E0007F74994204F500344FEAC0204FEAC222AD
:1032F00008BF904200F09C804FEA13650FF2401621
:10330000765D4FEA134506FB05F7C7F1807706FBAC
:1033100007F74FEAD737A7FB03687642C8F580382E
:10332000A7FB06CE38BFA8F1010807FB08E64FF05F
:10333000000EA6FB028CE6FB03CEDCF1000CCEF106
:10334000004E38BFAEF1010EA6FB0C584FF000073F
:103350004FF00005E6FB0E87A1FB08C6A0FB07CED9
:1033600016EB0E0645F10005E1FB076515F1E04E91
:103370007EBFA4F580345FEA46066D4116F18007F2
:1033800045F100054FEA17274FEA066647EA056749
:10339000A6F1DE46B6F1805F4FEA15251FD9384603
:1033A00024F0010C05EBC471BCF1FE6F01EB0C11B4
:1033B00002D8F0BCBDE8008124425CBF01F5801E4C
:1033C0009EEAC47F02D4F0BCBDE80081244238D418
:1033D000F0BCA1F1C041BDE8004100F071BA4FEA74
:1033E000D22242EA43524FEAD323A7FB02864FEA96
:1033F000D02040EA415007FB03661EEA0E0F4FEA59
:10340000D12105FB026658BFA6EB0056B6EB00566D
:103410004FEA520E4EEAC37E18EB0E0E56EB530ED9
:10342000BDD518EB02085E417F1C55F10005B6E7DB
:103430004FF480154FF000074FF000064FF00008E2
:10344000ADE7F0BC4FF0000001F1C04101F00041D8
:10345000BDE8008111EA0C1F0CEA131500D00CE046
:1034600013EA0C1F00F025804FF00000F0BC81EA49
:10347000030101F00041BDE80081F0BCBDE800415E
:1034800081EA030100F01CBAF0BCBDE8004170B550
:1034900000F0C8F9097EFC3E00F007B881EA03019C
:1034A0004FF0000001F00041704781EA030100F095
:1034B00007BAF0BCBDE800414FF000002149704759
:1034C000FFFDFBF9F7F5F4F2F0EEEDEBE9E8E6E4E9
:1034D000E3E1E0DEDDDBDAD8D7D5D4D3D1D0CFCD70
:1034E000CCCBCAC8C7C6C5C4C2C1C0BFBEBDBCBBA9
:1034F000BAB9B8B7B6B5B4B3B2B1B0AFAEADACABA4
:10350000AAA9A8A8A7A6A5A4A3A3A2A1A09F9F9E7D
:103510009D9C9C9B9A99999897979695959493932F
:10352000929191908F8F8E8E8D8C8C8B8B8A8989C6
:103530008888878786858584848383828281818049
:103540000000FF070000F87F4FEA41034FEA5353A2
:10355000A3F58063D3F11E03C8BFD3F1210C0CDDAA
:103560004FF0004242EAC12242EA505232FA03FCD2
:103570008CEAE17CACEBE1707047102BC4BF0020FB
:10358000704703F5787CBCF1FF3F04D06FF0004238
:1035900082EA2100704770B500F044F94992248016
:1035A00000207047F2E700004FEA1153A3F5806353
:1035B000D3F11E03A8BFD3F1200C08DB4FF000426B
:1035C00042EAC12252EA505232FA03F070470942ED
:1035D0000BD4102BC4BF0020704703F5787CBCF1DE
:1035E000FF3F05D04FF0FF3070474FF000007047AD
:1035F00070B500F017F900BF499224800020704791
:10360000F0E710F0004248BF4042B0FA80F310FAF1
:1036100003F10AD0C3F11D0303F580634FEA415063
:1036200002EB035202EBD12170474FF000007047CC
:10363000B0FA80F310FA03F10AD0C3F11D0303F5C9
:1036400080634FEA41504FEA035202EBD1217047A9
:103650004FF000007047000051EA030C17D41CF52E
:10366000801F58BFBCF5801F00F10680994218BF2B
:10367000704708BF9042704707D711F5801F58BFA9
:1036800013F5801F19D499427047894270471CF581
:10369000801F08D5BCF5801FF7D58B4218BF704737
:1036A00008BF824270474FF4001C1CEB410F38BF2B
:1036B0001CEB430F01D28B42704770B500F0B2F89B
:1036C000922449004FF000514FF08053FFF7D8BDCE
:1036D000DFF848C170B51CEA111E1EBF1CEA1315A5
:1036E0009EEA0C0F95EA0C0F00F06F8081EA03044C
:1036F00023EA4C134EEAD47E21EA4C1141F48011A6
:1037000043F48013AE44A1FB024CA0FB0365AEF171
:103710007F7E361955EB0C05A1FB034C4CF10003E1
:10372000A0FB021C16EB0C06654153F10003094295
:1037300018BF46F0010613F4007F0BD14FEA0331A6
:103740004FEA0530340341EA155140EA16506FF054
:1037500003020AE04FEAC3214FEAC520F40241EA1E
:10376000555140EA56506FF0020202EB2E4201EB37
:10377000025585EACE710AD05FEA440C18BF24F0E6
:10378000004450F1000041F1000120EAD47040F201
:10379000FE7C624500D270BDA84214BF4FF0804449
:1037A0004FF04044002E08BF0024BEF1806FA8BF38
:1037B000A1F1C041BDE8704080F282804FF000006E
:1037C00001F1C04101F0004170479EEA0C0F0CEA84
:1037D000131518BF95EA0C0F06D04FF0000081EAD0
:1037E000030E0EF0004170BD00F01CF88900013E90
:1037F00000F007B800F009B84FEA430C5FEA5C5CE0
:1038000008D081EA030100F05BB84FEA410C5FEA9F
:103810005C5CF6D14FF00000014970470000FF07E3
:103820000000F87F0EF1020E2EF0030E5EF8046B1E
:10383000364205D4012A43EB030515F5001F12D8C3
:10384000012841EB010C1CF5001F0CD80ED14FEAEA
:10385000D17C15F5001F0CEB4C0C0CF1020C08BFD1
:103860004CEBD37C04E04FF0080C01E04FEAD37C32
:103870000CEB4C0526FA05F606F00706B6F1040C2B
:1038800006D20EEB860CBDE870404CF0010C604790
:10389000DFE80CF0090B02024FF000414FF000008E
:1038A000A1F5002170BD19461046012851EB010415
:1038B00018BFD4F5001484BF002001F0004170BD92
:1038C0000808A0F500114FEA3101704791EA030F93
:1038D00010B581F000413FF52BAC83F0004300F0C0
:1038E000EFB800002DE9F04101F5801CBCF5001F88
:1038F000C0F2C3804FEA115C21EA0C510CF1FD0CBF
:1039000041F480115FEA5C0C0CF5C07C01D34000EF
:1039100049413DA4890241EA905187028E0E0A0C6A
:10392000A45D04FB04F602FB06F6C6F14046A4FBC8
:103930000662F60D46EA422606FB06F4A4FB0123C6
:103940005242C3F1404338BF5B1EA6FB0242002433
:10395000E6FB0324D20B42EA4446A6FB0623A1FB66
:1039600002E2A3FB07E4A4184FF0000252F10002A8
:10397000E3FB01426442C2F1404E38BFAEF1010E9A
:10398000A6FB04234FF00002E6FB0E32A2FB034627
:103990004FF00004B61954F10004E2FB0264A1FBED
:1039A00006E6A4FB07E816EB08064FF0000858F1FE
:1039B0000008E4FB01687642C8F1405838BFA8F11E
:1039C0000108A2FB06E4A3FB08E52D194FF0000453
:1039D00054F10004E2FB0854A1FB05E6A7FB04E850
:1039E00018EB06084FF0000656F10006E1FB0486CE
:1039F00018F1200556F10006A809A8F11B08B10925
:103A000008F03F08B8F10A0F40EA86601CD901EBC4
:103A10000C51BDE8F08100BFFCF5EEE8E2DDD8D343
:103A2000CFCBC7C3C0BDB9B6B4B1AEACA9A7A5A32F
:103A3000A19F9D9B9A9896959392908F8D8C8B8940
:103A40008887868584838281A0FB006800FB01F261
:103A500008EB4208B8EB872807D5341858EB010467
:103A6000D5D5401C51F10001D1E7341A78EB01049F
:103A7000CDD4401E71F10001C9E75FEA4C0C5FEA4A
:103A80009C5C0DD105D34FF0000001F00041BDE872
:103A9000F081BDE8F04170B5FFF7C4FE6DDBFFBEFD
:103AA000BDE8F0414FF00000004970470000F87F8A
:103AB00010B591EA030F48BF83F000433FF538ABE0
:103AC000841A71EB030C07D212198CF0004C43EBF3
:103AD0000C03001B61EB0C01DFF8A4E14FEA115469
:103AE000A4EB135C1EEA430F18BF9EEA445F00F08C
:103AF000B08023EA6E03524221EA0451C3EB6E0305
:103B000038BF5B1EDCF1200E25D322FA0CFE10EB31
:103B10000E0043FA0CFE41EB0E01CCF1200E03FA2D
:103B20000EFE10EB0E0051F10001CCF1200E29D455
:103B300012FA0EF201EB0451BDE8104058BF704775
:103B4000401C1CBFB2F1004F704700280CBF491C3D
:103B500020F00100704712EB020E43EB030218BF86
:103B60004FF0010E4EEA4202ACF1200CDCF11E0EC9
:103B700054D943FA0CFE10EB0E0051F1FF31CCF199
:103B80001E0ED5D50EF1010E12FA0EFE404141EB8C
:103B9000010101EB445C5FEA5C5C10D910EBDE7064
:103BA00001EB045138BFBEF1004FBDE8104018BF13
:103BB000704700280CBF491C20F00100704730D22C
:103BC0004FEAD42C11F5001124F400641BD0B1FA93
:103BD00081F20B3AA41AA41ED2F12003914030FACC
:103BE00003F31943904001EBCC71002C01EB04511D
:103BF000BDE81040A8BF704701F1C0414FF0000080
:103C000001F000417047B0FA80F310FA03F100D1DF
:103C100010BDE41A173C4805C90AE4E701EB04515A
:103C200010BD491001EB0451BDE810404FEA3000CF
:103C300002E04FF0000170474A0008BF0042F8D090
:103C4000B2F5001F28BF704701F000414FF000009F
:103C500070479EEA445F07D011EA5E0FBDE810404E
:103C600004BF002100207047BDE8104070B5FFF789
:103C7000D9FD00BF40DFF63E83F00041104670479B
:103C80000000E0FF43004FEAD30C4FEA3C0C4340F6
:103C90001FBF40070CF1605113F0FE4F70471CF03E
:103CA000006F03D100200CF0004170470CF000437E
:103CB00043EA507010B540EACC0000F028FA00BF8B
:103CC000000000924FEA0001FFF7FABD4FF00041FB
:103CD0004FF00000A1F500217047000090EA010FAD
:103CE00048BF81F0004100F19682421A3CBF801A21
:103CF00089184FEAD0524FF07F4C1CEA410FA2EBDB
:103D0000D15318BF9CEA026F00F03B804FF0004C8B
:103D10004CEA00204CEA012121FA03FC10EB0C0CC8
:103D20001ED202F1FF325FEA1C2040EBC25038BFC6
:103D300070471CF07F0F4FEA400C18BFBCF17F4F5B
:103D400038BF7047C3F12003994008BF20F001003D
:103D5000BCF17F4F38BF7047A0F1C04000F01DBAE2
:103D60004FEA3C00000A40EBC25028BF1CF0FF0F96
:103D70004FEA400CE6D018BFBCF17F4F38BF704708
:103D8000EAE79CEA026F05D010EA5C0F08BF00F07A
:103D90000040704710B500F0BAF900BF64FBBE3EAA
:103DA000401058BFC0F14040491058BFC1F14041D8
:103DB0008142EFF3008070474FF47F0C1CEAD01271
:103DC0001EBF1CEAD11392EA0C0F93EA0C0F00F00D
:103DD000858090EA010F48BF42F4807240F4000CE5
:103DE00041F400002CF07F4120F07F4000B581427B
:103DF000A2EB03020FF2081CACEB504EC0F1000026
:103E00009EF800E04FEA4E0E00FB0EFC38BF490062
:103E10004FEA2C1C02F5FA020CFB0EF34FEACE1E01
:103E20004FEA112C4FEAC1210EEB635E42EB2242B6
:103E30000EFB0CFC4FEA1C5300FB03114FEA112C44
:103E40004FEA01310EFB0CFC4FEADC4C00FB0C117D
:103E5000C14228BF09184CEB03335DF804EB10EBAB
:103E6000410143EBC250B2F57C0F38BF704729D5F2
:103E700012F0F00F1CBF00F1C04000F0004070478E
:103E8000008182838485868788898B8C8D8E8F9133
:103E90009293959697999A9C9D9FA0A2A3A5A7A857
:103EA000AAACAEB0B2B3B5B7B9BCBEC0C2C5C7C983
:103EB000CCCED1D4D7D9DCDFE2E6E9ECF0F3F7FAE7
:103EC000FE0000004FEA400C0CF1807CBCF17E4FFC
:103ED00028BF7047B0F1C04000F05FB990EA010F11
:103EE0000CEAD11348BF42F48072624538BF634583
:103EF00007D213F47F0F16D080EA010000F00040D3
:103F0000704710B500F003F9097EFC3E00F005B8DB
:103F100080EA010000F00040704780EA010000F0F4
:103F2000004000F03AB912F47F0F04BF0248704716
:103F300080EA010000F031B90000C07F41000B0EA3
:103F4000D3F19E0208D950F400034FEA032323FA69
:103F500002F048BF4042704710B500F0D8F800BFEB
:103F600049922480002070476FF0004282EA2000CE
:103F70007047000010F0004148BF4042B0FA80F3A3
:103F800010FA03F2C3F19D030BD051EAC35101EBC8
:103F90001220530638BF704700F1010008BF20F01F
:103FA0000100704750EA010C00F113801CF5000F6E
:103FB00058BFBCF5000F01D48842704707D710F5F1
:103FC000000F58BF11F5000F15D488427047894281
:103FD00070471CF5000F04D5BCF5000FF7D58142E2
:103FE00070474FF0807C1CEB400F38BF1CEB410F3B
:103FF00001D28142704710B500F089F8922449003F
:104000004FF000504FF08051FFF7CABE4FF47F0CC5
:104010001CEAD0121EBF1CEAD11392EA0C0F93EADD
:104020000C0F00F0478090EA010F48BF42F4807205
:104030004FF0004C4CEA00204CEA012102EB030255
:10404000A0FB0113A2F50002002918BF43F00103F1
:104050005B0028BF4FEA330342EB22425FEA132C96
:104060004CEBC2502EBFBCEB436FB2F57C0F7047D8
:104070004FEA036CBCF1004F08BF20F00100B2F51D
:104080007C0F38BF70470BD582F0FF0212F5803FDE
:10409000C8BF704700F1C040D8BF00F00040704773
:1040A00000F5000C5FEA4C0C48BF7047B0F1C0400F
:1040B00000F073B890EA010F0CEAD11348BF42F444
:1040C0008072624538BF634504D280EA010000F087
:1040D0000040704710B500F01AF800BF8900013E9B
:1040E00000F007B800F009B85FEA410C5FEA1C6C09
:1040F00008D080EA010000F050B85FEA400C5FEAA7
:104100001C6CF6D14FF00040A0F5800070470EF116
:10411000020E2EF0030E5EF8044B244204D44FEA44
:104120004102B2F17F4F11D84FEA4003B3F17F4F04
:104130000CD80ED14FEAD07CB2F17F4F0CEB4C0C77
:104140000CF1020C08BF4CEBD17C04E04FF0080CE2
:1041500001E04FEAD17C0CEB4C0324FA03F404F0A9
:104160000704B4F1040C06D20EEB840CBDE8104039
:104170004CF0010C6047DFE80CF0070802024FF03A
:104180000040A0F5800010BD0846420018BFD2F1E3
:10419000807288BF00F0004010BDFF2141EAD0507E
:1041A000C005704751EA000C00F113801CF5000FA8
:1041B00058BFBCF5000F01D48142704707D711F5F5
:1041C000000F58BF10F5000F15D481427047894287
:1041D00070471CF5000F04D5BCF5000FF7D58842D9
:1041E00070474FF0807C1CEB410F38BF1CEB400F39
:1041F00001D28842704780EA010081EA000180EA2A
:104200000100FFF7F8BE000090EA010F48BF81F0FF
:1042100000413FF56AAD421A04D882F00042A0EB9B
:10422000020011444FEAD0524FF07F4C1CEA410F7C
:10423000A2EBD15318BF9CEA026F4AD04FF0004C5A
:104240004CEA00204CEA012121FA03FCB0EB0C0CF3
:104250000FD412F0FE0F36D05FEA4C001DD50012CD
:1042600040EBC25038BF70471CF03F0F18BF70477B
:104270000BE0A2F101025FEA1C2040EBC25038BF04
:1042800070471CF07F0F18BF7047C3F1200399409F
:1042900014BF401E20F00100704780084FEA12232F
:1042A00008BF7047B0FA80FCA2EB0C02CCF1280CDE
:1042B00060FA0CF093EA122F04BF00EBC250704773
:1042C0004FEAC3707047130A5FEADC1008BF7047FB
:1042D000F6E79CEA026F04D010EA5C0F08BF0020EA
:1042E000704710B5FFF713FF40DFF63E81F0004046
:1042F00070470CF00F03092B08BF082000F059800D
:104300000A2B0BD0082B18BF704708BF1CF0400FBA
:104310000AD04FF000004FF0000170471CF0400F32
:1043200018BF4FF0004070471CF0100F08D020F06D
:10433000704300F07F4242EAD3014FEA4370704776
:1043400000F0604021F07F4242EA000201F07F402D
:1043500040EA727070474FF0FF0C4CF4E06C1CEABE
:1043600011531CBF9CEA030C9445C2BFDA4201EB17
:1043700002517047002B0DD0BCF1000F0FD0002A66
:1043800001F00041A4BF41F0E04141F07F614FF0F6
:104390000000704701F000414FF00000704750EA04
:1043A00001334FF09B0C18BF4CF0806C7EF460AF73
:1043B00070471CF4801F11D01CF4E02F03D06FEA6B
:1043C000CC31490070474FF04050EFF3008222F0AB
:1043D000704242EA000282F3008870474FF000000A
:1043E0007047000000D084462A0000000900000049
:1043F00040A09F2008644878111231104D08040233
:104400000483C184403E7F1288900481244120109F
:1044100010080422028108C97EC2200680F1F8FD3E
:104420000D00000007000000A000F4FF01380007A5
:10443000C0FF0BC005000000070000004B29A57459
:104440000000008005000000070000001022841317
:104450000000008005000000070000004344847451
:10446000000000C005000000070000004BC184747C
:10447000000000800500000007000000784A951148
:104480000000008005000000070000004B211C72A6
:104490000000008005000000070000004B291932D1
:1044A000000000800500000007000000224484F0A6
:1044B0000000000005000000070000004BC9A474C4
:1044C0000000008005000000070000001327A5740D
:1044D000000000001E00000007000000F19E833C69
:1044E000024A110A0728450802BC14210A815E8489
:1044F000CF03421100000F391E000000070000002A
:104500003CC41121859048C412422019490F81549E
:10451000E4216452518890C800C07B1E190000003D
:1045200007000000440FE2884462048941223F8270
:104530008C2091182346904800003C8F1900000001
:10454000070000000487E7F941442482893C2412D3
:104550008C781014E747220800001C9154000000DA
:104560000A00000018633C2007C1201C06F2C3C3E8
:10457000220631266246300827422020832043301D
:104580000232240C0C523208C24808028360208098
:104590007F8020250748888C962208E48818040824
:1045A00040408EF88040298288881F416308042497
:1045B00011240814408288088031C440D83041C496
:1045C000C70F64CC8C0708837C840516000000FEAE
:1045D0002500000009000000A33006C289302082B7
:1045E00082020A221250108A001148141438429094
:1045F000201085E8A0287EA024128288E0208288EE
:104600000000C8A32500000009000000A3300682B6
:1046100089302082820211221250108A801248149E
:1046200008384290201085E8A0287E40241202829B
:10463000E02010880000C8A30A0000000E0000005F
:1046400011C60C1E6CB0C10620C30413C60833C8C3
:104650000000001E0A0000000E00000010C303034B
:10466000C000030400030C300618608000008001C5
:104670000A0000000E00000009620C0F6080008339
:1046800003060C3060C080010000E03F0A0000001B
:104690000E00000008630C0F4080418280014CE056
:1046A00063041B6C0000000F0A0000000E000000F5
:1046B00038E0C00163860D1E3F638410020830F0AD
:1046C000000080010A0000000E00000000028C3F84
:1046D000861F608000010C30460C33480000000F3C
:1046E0000A0000000E00000080018303C70B30C0E9
:1046F0009861861923861966000080070A00000069
:104700000E0000001860C07F8001030C06083040D6
:1047100060C00003000000380A0000000E00000026
:104720000C63060F618C30C39061CCE06304196C9C
:104730000000000F0A0000000E0000000963040FD3
:1047400026986082801DCE180C0830400000000EB4
:104750000200000002000000000000B00A0000009B
:10476000010000000000003F0E0000000E000000ED
:1047700028100538828820219003124188049C006B
:1047800048101124018A4041000000C00E000000C2
:104790000E000000081001388280202080031001E4
:1047A0000000000000000000000000000000000009
:1047B0000A00000005000000FCCF01040000041CFA
:1047C0000A00000005000000FC0F0E08000008E0D1
:1047D000050000000A00000090EF1C210000218469
:1047E000050000000A0000007D420821000021CEE3
:1047F0003D000000070000001C27847044C4D1273E
:10480000912421466022918894240951029189447F
:1048100092244E4812884A2491C44942F2445422B8
:10482000893C49125EC8611247144A9C000020115D
:10483000110000000700000011C52FF244918822EA
:104840001124224F00080712140000000700000086
:1048500040F809F44E1484C41284244187E441488A
:10486000000040A13700000007000000BCE82372F0
:10487000149FE33D42401141822CA22850848022A3
:104880007D045544F8A0E8E1028A08AA4C114D11B4
:104890002204141122881C8AF7780F2F0000008050
:1048A0003200000007000000CF831721458CE33C55
:1048B00045288A10224419152541108AF3A208516F
:1048C0004354498E5E1020CF2882104D78511845F0
:1048D00038CE8B200A00000007000000AA98627200
:1048E00097A28A2C000000241C0000000700000092
:1048F00009BE908855808891520588282465804893
:10490000C86306888942228000000050160000001B
:104910000700000028BEC8F1CAA288A28AAF8A2276
:10492000A628A22AC08B1C8F0700000007000000E9
:1049300082A088820080A088600000003D00000006
:10494000000000003C00000000000000000000002B
:10495000C30100000000008000000000000600000D
:10496000000000C000000000073800000000003018
:104970000000000018C000000000000C0000000053
:10498000E000010000000003000000000007030039
:104990000000C01C0000000000000C00000030609F
:1049A000000000000360700000000C8000000000A8
:1049B0001CB081010000730000000000000C0E0E0E
:1049C00000C0800100000000000370300030000EC5
:1049D00001000000C00080C100CC01700E0000008A
:1049E0003000000E00030600300000000C00003014
:1049F000C0003800C1010000030000C06000C00119
:104A00000E06000000000000A00300C030380000C7
:104A100000000000200C0030C0C11C00000000009D
:104A20002070000C000E77000000000020800303BF
:104A3000003080010000000020001E1C000C000E51
:104A40000000000020006C6000030730030000003D
:104A500020008C83C00038400C00000020000C0CAB
:104A60003000C0C07000000020000C700C1C00F76B
:104A70008101000020000C8003E000BC0E0E00004D
:104A800020000C000000038F703000C020000C00DC
:104A90007000DC8B80C1013020000C008003F088A6
:104AA000000E060C20000C00000C3C88003038037F
:104AB00020000C0001702F8800C0C1C020000C0035
:104AC0000EC023880000060020000C0030F0208873
:104AD0000000180020000C00C0BD2088000030003D
:104AE00020000C00008F20880000F00020000C0047
:104AF000C08320880000100760000C00F08220882E
:104B00000000101880030C003C822088000010E098
:104B1000000C0C000F8220880000100000700C00B8
:104B20000E8220880000100000800F000E82208876
:104B30000000100000001E000E82208800001000FF
:104B4000000060000E82208800001000000080033A
:104B50000E822088000010000000000C0E822088C9
:104B600000001000000000700E8220C8010010003C
:104B7000000000800E8220380E00100000000000AF
:104B80000E82200C70001000000000000E82200336
:104B900080011000000000000E82E000000E1000F6
:104BA000000000000E823000003010000000000005
:104BB0000E820C0000C01100000000000E820300F5
:104BC00000001600000000000EC2000000001800E7
:104BD000000000000E320000000030000000000065
:104BE0000E0E00000000E000000000000E030000B8
:104BF0000000000700000000CE00000000000018C8
:104C0000000000003E000000000000E00000000086
:104C10000F00000000000000000000006000000025
:104C20004C000000000000000E000000000000002A
:104C300000000000310000000000008000000000C3
:104C4000C00000000000006000000000000700003D
:104C5000000000180000000000180000000000061E
:104C60000000000000600000000080010000000063
:104C700000C00000000060000000000000F0010023
:104C80000000180000000000003C030000000600C7
:104C900000000000000F0C0000001E0000000000DB
:104CA000C00330000000E60000000000F000C0017A
:104CB00000000203000000003C0000060000020C9F
:104CC000000000000F00001800000230000000008B
:104CD000030000E0000002C003000000000000002C
:104CE000000002C01C00000001000000000006805F
:104CF000600000000600000000001A0080010000B3
:104D0000180000000000E200000E0000E0000000BB
:104D10000000020300300700020300000000020C44
:104D200000C019000E0C00000000023000306000CE
:104D30007270000000000200000C800382810100FC
:104D4000000002000003000C02060E000000060036
:104D5000C00000300238300000001A00300000406F
:104D600002C0C0000000E2000C0000B00200070713
:104D7000000002030300008C020018980000020CDF
:104D80000E000083020060E0000002303000C080AE
:104D90000200800300000200C00130800200000C0D
:104DA0000000020000060C80020000300000060037
:104DB000001803800200002000001A0000E000C07C
:104DC000020000200000E20000E000B0020000202D
:104DD0000000020302E0008C020000200000020C30
:104DE0000CE00083020000200000023030E0C080B0
:104DF0000200002000000200C0E13080020000201C
:104E00000000020000E60C8002000020000002000A
:104E100000F80380020000200000060000E000C04F
:104E20000200002000001A0000E000B00200002094
:104E30000000E20002E0008C0200002000000203FB
:104E40000CE00083020000200000020C30E0C08073
:104E50000200002000000230C0E13080020000208B
:104E60000000020000E60C800200002000000200AA
:104E700000F80380020000200000040000E000C0F1
:104E80001C0000200000180000E000B060000020BE
:104E90000000600002E0008C800100200000800320
:104EA0000CE00083000E00200000000C30E0C08009
:104EB00003300020000000F0C0E130801CC0012061
:104EC0000000000000E60C806000062000000000EA
:104ED00000F80380800138200000000000E000C0DE
:104EE000000EC0200000000000E000B000300023F1
:104EF0000000000002E0008C00C0013C0000000047
:104F00000CE00083000006200000000030E0C080BC
:104F10000000380000000000C0E130800000C00048
:104F20000000000000E60C8000000003000000000C
:104F300000F803800000001C0000000000E000807A
:104F4000000000600000000001E000400000008060
:104F50000000000001E00030000000000000000040
:104F600002E0000C00000000000000000CE0000364
:104F7000000000000000000030E0C0000000000061
:104F800000000000C0E13000000000000000000050
:104F900000E60C00000000000000000000F8030024
:104FA000000000000000000000E000000000000021
:104FB0000000000060AAD0000004A90000005E000C
:104FC000001FFF00000000004FBB610567ACDD3F24
:104FD000182D4454FB21E93F9BF681D20B73EF3F20
:104FE000182D4454FB21F93FE2652F227F2B7A3C98
:104FF000075C143326A6813CBDCBF07A8807703C51
:10500000075C143326A6913CC4EB98999999C9BFC3
:10501000711623FEC671BCBF6D9A74AFF2B0B3BFF8
:105020009AFDDE522DDEADBF2F6C6A2C44B4A2BFB8
:105030000D5555555555D53FFF8300922449C23F24
:105040006E204CC5CD45B73F513DD0A0660DB13F58
:10505000EB0D76244B7BA93F11DA22E33AAD903F6A
:105060004C5555555555A53F7751C1166CC156BF86
:105070009015CB19A001FA3EAD529C804F7E92BE96
:10508000C4B1B4BD9EEE213ED43888BEE9FAA8BDB5
:10509000000000000000000000004054FB21F93F28
:1050A0003163621A61B4D03D0000601A61B4D03D32
:1050B0007370032E8A19A33B0000002E8A19A33BAC
:1050C000C14920259A837B390000000000000000C0
:1050D0006E83F9A22915444ED15727FCC0DD34F563
:1050E000999562DB4190433CAB6351FE61C5BBDEE9
:1050F0003A6E24B7E0D24D42EA2E49061C92D109FD
:105100001CEB1DFE3EA729B1F53582E88444BB2E79
:1051100026709CE9417E5FB439D69139F4395383C6
:105120008B5F849C3B28F9BDFF97F81F0F9805DE25
:105130008B112FEF1F6D0A5ACF7E366DB709CB2723
:10514000663F464F2DEA5F9EC7BA27757BF1E5EBB8
:10515000F739073DEA92528AB15FFB6B085D8D1FFC
:10516000A6F810111111813FD561C119A0012ABF04
:105170007DFEB157E31DC73EEB9C2B8AE6E55ABE88
:105180007CD5CF5A3AD9E53D7AFE10111111C13FB5
:1051900037D60684F464963F280356C9226D6D3FC6
:1051A0000165F2F2D844433FA69237A0887E143FAF
:1051B000735360DBCB75F3BEFE41B31BBAA1AB3FAB
:1051C00093846EE9E326823F1583E0FEC8DB573FF8
:1051D00068108D1AF726303FE9A7F0320FB8123F5A
:1051E000D47ABF74702AFB3E0852000800000020E9
:1051F000241800006C0100087C54000824180020CA
:1052000084060000C8010008012C20086F12833AB0
:1052100060AAD03304A9225E231FFF220142C82ABC
:105220000301612C03030401390F490B390FC90D28
:10523000890C292A09310D09185BC982C99C0124EE
:1052400019D3014A09FD4D01308A030109404999EA
:105250009A093951A93A89E7093350C934894DF976
:105260001B092E4BD94D092C4F09102CD94D09295A
:105270004F091128F94D09132609244C09124D092B
:10528000234E09132409124D09204E0A1403220942
:10529000134D09162D091E6D09144D091D9D094A4E
:1052A0004D09171C09164D09194E09181A09174DF1
:1052B0000917340919B409184D09153609174C4A4C
:1052C0000201092B4E09144D4946299A0916500925
:1052D000123809134C694059E709144F09113A096A
:1052E0001113893C594D09144F09103A09124CA168
:1052F000794DB91609173C09104DA936994D091178
:105300004EE93C091C4CB94D09204EF94DC932B942
:105310004D09104E091D4DD930C94DF94EC93E09F0
:105320001D99091E4DC940091D99E94D091C9B098C
:105330005A4DF9C7E94DE922A940091E99091F4DA7
:10534000A942095A4DF94C09104D0919E809934D24
:105350002A01013A03067901CA020F091301D9246F
:1053600049420998E7095F4D09104EF94DE92209B4
:10537000564D091FE8091E4DB940091E9BE94D090C
:105380001A99095C4DE92ED94DE94CD940091D9B6C
:10539000091D4DD93E091D9BC94D091D9909104D87
:1053A000C932B94DF94CF93E091C4EA94D09204CA2
:1053B00009114DA936994D09104C09113C09124E9D
:1053C0007939794D8913091B3A091113893C594DD3
:1053D00009124B09143A09134E19402941294D4924
:1053E0000A09253809144D494629010118091438BC
:1053F00009174E79E7092A3609184E09184D091878
:105400003409171A09174D0919CE09171C09164D29
:10541000091A4C094C4D110A14031F09144D0915A2
:105420002D091E6D09134D091F4B09152409124D35
:1054300009224C09132609114D09244C1928F92970
:10544000F94D09102309284FD94D092A4B0910306D
:10545000B94D092E4B49348935894DA916092F506C
:10546000493B494D790F013929425901014789E7E3
:0C54700009FD4D09534D6B803F04000006
:040000050800020DE0
:00000001FF
